{
  "_format": "hh-sol-artifact-1",
  "contractName": "ArduinoNFT",
  "sourceName": "contracts/ArduinoNFT.sol",
  "abi": [
    {
      "inputs": [
        {
          "internalType": "address",
          "name": "initialOwner",
          "type": "address"
        }
      ],
      "stateMutability": "nonpayable",
      "type": "constructor"
    },
    {
      "inputs": [
        {
          "internalType": "address",
          "name": "sender",
          "type": "address"
        },
        {
          "internalType": "uint256",
          "name": "tokenId",
          "type": "uint256"
        },
        {
          "internalType": "address",
          "name": "owner",
          "type": "address"
        }
      ],
      "name": "ERC721IncorrectOwner",
      "type": "error"
    },
    {
      "inputs": [
        {
          "internalType": "address",
          "name": "operator",
          "type": "address"
        },
        {
          "internalType": "uint256",
          "name": "tokenId",
          "type": "uint256"
        }
      ],
      "name": "ERC721InsufficientApproval",
      "type": "error"
    },
    {
      "inputs": [
        {
          "internalType": "address",
          "name": "approver",
          "type": "address"
        }
      ],
      "name": "ERC721InvalidApprover",
      "type": "error"
    },
    {
      "inputs": [
        {
          "internalType": "address",
          "name": "operator",
          "type": "address"
        }
      ],
      "name": "ERC721InvalidOperator",
      "type": "error"
    },
    {
      "inputs": [
        {
          "internalType": "address",
          "name": "owner",
          "type": "address"
        }
      ],
      "name": "ERC721InvalidOwner",
      "type": "error"
    },
    {
      "inputs": [
        {
          "internalType": "address",
          "name": "receiver",
          "type": "address"
        }
      ],
      "name": "ERC721InvalidReceiver",
      "type": "error"
    },
    {
      "inputs": [
        {
          "internalType": "address",
          "name": "sender",
          "type": "address"
        }
      ],
      "name": "ERC721InvalidSender",
      "type": "error"
    },
    {
      "inputs": [
        {
          "internalType": "uint256",
          "name": "tokenId",
          "type": "uint256"
        }
      ],
      "name": "ERC721NonexistentToken",
      "type": "error"
    },
    {
      "inputs": [
        {
          "internalType": "address",
          "name": "owner",
          "type": "address"
        }
      ],
      "name": "OwnableInvalidOwner",
      "type": "error"
    },
    {
      "inputs": [
        {
          "internalType": "address",
          "name": "account",
          "type": "address"
        }
      ],
      "name": "OwnableUnauthorizedAccount",
      "type": "error"
    },
    {
      "anonymous": false,
      "inputs": [
        {
          "indexed": true,
          "internalType": "address",
          "name": "owner",
          "type": "address"
        },
        {
          "indexed": true,
          "internalType": "address",
          "name": "approved",
          "type": "address"
        },
        {
          "indexed": true,
          "internalType": "uint256",
          "name": "tokenId",
          "type": "uint256"
        }
      ],
      "name": "Approval",
      "type": "event"
    },
    {
      "anonymous": false,
      "inputs": [
        {
          "indexed": true,
          "internalType": "address",
          "name": "owner",
          "type": "address"
        },
        {
          "indexed": true,
          "internalType": "address",
          "name": "operator",
          "type": "address"
        },
        {
          "indexed": false,
          "internalType": "bool",
          "name": "approved",
          "type": "bool"
        }
      ],
      "name": "ApprovalForAll",
      "type": "event"
    },
    {
      "anonymous": false,
      "inputs": [
        {
          "indexed": true,
          "internalType": "address",
          "name": "previousOwner",
          "type": "address"
        },
        {
          "indexed": true,
          "internalType": "address",
          "name": "newOwner",
          "type": "address"
        }
      ],
      "name": "OwnershipTransferred",
      "type": "event"
    },
    {
      "anonymous": false,
      "inputs": [
        {
          "indexed": true,
          "internalType": "address",
          "name": "from",
          "type": "address"
        },
        {
          "indexed": true,
          "internalType": "address",
          "name": "to",
          "type": "address"
        },
        {
          "indexed": true,
          "internalType": "uint256",
          "name": "tokenId",
          "type": "uint256"
        }
      ],
      "name": "Transfer",
      "type": "event"
    },
    {
      "inputs": [
        {
          "internalType": "address",
          "name": "to",
          "type": "address"
        },
        {
          "internalType": "uint256",
          "name": "tokenId",
          "type": "uint256"
        }
      ],
      "name": "approve",
      "outputs": [],
      "stateMutability": "nonpayable",
      "type": "function"
    },
    {
      "inputs": [
        {
          "internalType": "address",
          "name": "owner",
          "type": "address"
        }
      ],
      "name": "balanceOf",
      "outputs": [
        {
          "internalType": "uint256",
          "name": "",
          "type": "uint256"
        }
      ],
      "stateMutability": "view",
      "type": "function"
    },
    {
      "inputs": [
        {
          "internalType": "uint256",
          "name": "tokenId",
          "type": "uint256"
        }
      ],
      "name": "getApproved",
      "outputs": [
        {
          "internalType": "address",
          "name": "",
          "type": "address"
        }
      ],
      "stateMutability": "view",
      "type": "function"
    },
    {
      "inputs": [
        {
          "internalType": "address",
          "name": "owner",
          "type": "address"
        },
        {
          "internalType": "address",
          "name": "operator",
          "type": "address"
        }
      ],
      "name": "isApprovedForAll",
      "outputs": [
        {
          "internalType": "bool",
          "name": "",
          "type": "bool"
        }
      ],
      "stateMutability": "view",
      "type": "function"
    },
    {
      "inputs": [
        {
          "internalType": "address",
          "name": "to",
          "type": "address"
        },
        {
          "internalType": "bytes32",
          "name": "deviceDigest",
          "type": "bytes32"
        }
      ],
      "name": "mint",
      "outputs": [],
      "stateMutability": "nonpayable",
      "type": "function"
    },
    {
      "inputs": [],
      "name": "name",
      "outputs": [
        {
          "internalType": "string",
          "name": "",
          "type": "string"
        }
      ],
      "stateMutability": "view",
      "type": "function"
    },
    {
      "inputs": [],
      "name": "owner",
      "outputs": [
        {
          "internalType": "address",
          "name": "",
          "type": "address"
        }
      ],
      "stateMutability": "view",
      "type": "function"
    },
    {
      "inputs": [
        {
          "internalType": "uint256",
          "name": "tokenId",
          "type": "uint256"
        }
      ],
      "name": "ownerOf",
      "outputs": [
        {
          "internalType": "address",
          "name": "",
          "type": "address"
        }
      ],
      "stateMutability": "view",
      "type": "function"
    },
    {
      "inputs": [
        {
          "internalType": "bytes32",
          "name": "deviceDigest",
          "type": "bytes32"
        }
      ],
      "name": "ownerOfDevice",
      "outputs": [
        {
          "internalType": "address",
          "name": "",
          "type": "address"
        }
      ],
      "stateMutability": "view",
      "type": "function"
    },
    {
      "inputs": [],
      "name": "renounceOwnership",
      "outputs": [],
      "stateMutability": "nonpayable",
      "type": "function"
    },
    {
      "inputs": [
        {
          "internalType": "address",
          "name": "from",
          "type": "address"
        },
        {
          "internalType": "address",
          "name": "to",
          "type": "address"
        },
        {
          "internalType": "uint256",
          "name": "tokenId",
          "type": "uint256"
        }
      ],
      "name": "safeTransferFrom",
      "outputs": [],
      "stateMutability": "nonpayable",
      "type": "function"
    },
    {
      "inputs": [
        {
          "internalType": "address",
          "name": "from",
          "type": "address"
        },
        {
          "internalType": "address",
          "name": "to",
          "type": "address"
        },
        {
          "internalType": "uint256",
          "name": "tokenId",
          "type": "uint256"
        },
        {
          "internalType": "bytes",
          "name": "data",
          "type": "bytes"
        }
      ],
      "name": "safeTransferFrom",
      "outputs": [],
      "stateMutability": "nonpayable",
      "type": "function"
    },
    {
      "inputs": [
        {
          "internalType": "address",
          "name": "operator",
          "type": "address"
        },
        {
          "internalType": "bool",
          "name": "approved",
          "type": "bool"
        }
      ],
      "name": "setApprovalForAll",
      "outputs": [],
      "stateMutability": "nonpayable",
      "type": "function"
    },
    {
      "inputs": [
        {
          "internalType": "bytes4",
          "name": "interfaceId",
          "type": "bytes4"
        }
      ],
      "name": "supportsInterface",
      "outputs": [
        {
          "internalType": "bool",
          "name": "",
          "type": "bool"
        }
      ],
      "stateMutability": "view",
      "type": "function"
    },
    {
      "inputs": [],
      "name": "symbol",
      "outputs": [
        {
          "internalType": "string",
          "name": "",
          "type": "string"
        }
      ],
      "stateMutability": "view",
      "type": "function"
    },
    {
      "inputs": [
        {
          "internalType": "uint256",
          "name": "tokenId",
          "type": "uint256"
        }
      ],
      "name": "tokenURI",
      "outputs": [
        {
          "internalType": "string",
          "name": "",
          "type": "string"
        }
      ],
      "stateMutability": "view",
      "type": "function"
    },
    {
      "inputs": [
        {
          "internalType": "address",
          "name": "from",
          "type": "address"
        },
        {
          "internalType": "address",
          "name": "to",
          "type": "address"
        },
        {
          "internalType": "uint256",
          "name": "tokenId",
          "type": "uint256"
        }
      ],
      "name": "transferFrom",
      "outputs": [],
      "stateMutability": "nonpayable",
      "type": "function"
    },
    {
      "inputs": [
        {
          "internalType": "address",
          "name": "newOwner",
          "type": "address"
        }
      ],
      "name": "transferOwnership",
      "outputs": [],
      "stateMutability": "nonpayable",
      "type": "function"
    }
  ],
  "bytecode": "0x608060405234801561001057600080fd5b5060405161277738038061277783398181016040528101906100329190610272565b806040518060400160405280601681526020017f41726475696e6f2044657669636520505546204e4654000000000000000000008152506040518060400160405280600681526020017f5055464e4654000000000000000000000000000000000000000000000000000081525081600090816100ae91906104ef565b5080600190816100be91906104ef565b505050600073ffffffffffffffffffffffffffffffffffffffff168173ffffffffffffffffffffffffffffffffffffffff16036101335760006040517f1e4fbdf700000000000000000000000000000000000000000000000000000000815260040161012a91906105d0565b60405180910390fd5b6101428161014960201b60201c565b50506105eb565b6000600660009054906101000a900473ffffffffffffffffffffffffffffffffffffffff16905081600660006101000a81548173ffffffffffffffffffffffffffffffffffffffff021916908373ffffffffffffffffffffffffffffffffffffffff1602179055508173ffffffffffffffffffffffffffffffffffffffff168173ffffffffffffffffffffffffffffffffffffffff167f8be0079c531659141344cd1fd0a4f28419497f9722a3daafe3b4186f6b6457e060405160405180910390a35050565b600080fd5b600073ffffffffffffffffffffffffffffffffffffffff82169050919050565b600061023f82610214565b9050919050565b61024f81610234565b811461025a57600080fd5b50565b60008151905061026c81610246565b92915050565b6000602082840312156102885761028761020f565b5b60006102968482850161025d565b91505092915050565b600081519050919050565b7f4e487b7100000000000000000000000000000000000000000000000000000000600052604160045260246000fd5b7f4e487b7100000000000000000000000000000000000000000000000000000000600052602260045260246000fd5b6000600282049050600182168061032057607f821691505b602082108103610333576103326102d9565b5b50919050565b60008190508160005260206000209050919050565b60006020601f8301049050919050565b600082821b905092915050565b60006008830261039b7fffffffffffffffffffffffffffffffffffffffffffffffffffffffffffffffff8261035e565b6103a5868361035e565b95508019841693508086168417925050509392505050565b6000819050919050565b6000819050919050565b60006103ec6103e76103e2846103bd565b6103c7565b6103bd565b9050919050565b6000819050919050565b610406836103d1565b61041a610412826103f3565b84845461036b565b825550505050565b600090565b61042f610422565b61043a8184846103fd565b505050565b5b8181101561045e57610453600082610427565b600181019050610440565b5050565b601f8211156104a35761047481610339565b61047d8461034e565b8101602085101561048c578190505b6104a06104988561034e565b83018261043f565b50505b505050565b600082821c905092915050565b60006104c6600019846008026104a8565b1980831691505092915050565b60006104df83836104b5565b9150826002028217905092915050565b6104f88261029f565b67ffffffffffffffff811115610511576105106102aa565b5b61051b8254610308565b610526828285610462565b600060209050601f8311600181146105595760008415610547578287015190505b61055185826104d3565b8655506105b9565b601f19841661056786610339565b60005b8281101561058f5784890151825560018201915060208501945060208101905061056a565b868310156105ac57848901516105a8601f8916826104b5565b8355505b6001600288020188555050505b505050505050565b6105ca81610234565b82525050565b60006020820190506105e560008301846105c1565b92915050565b61217d806105fa6000396000f3fe608060405234801561001057600080fd5b50600436106101165760003560e01c806370a08231116100a2578063a22cb46511610071578063a22cb465146102df578063b88d4fde146102fb578063c87b56dd14610317578063e985e9c514610347578063f2fde38b1461037757610116565b806370a0823114610269578063715018a6146102995780638da5cb5b146102a357806395d89b41146102c157610116565b8063175c37ef116100e9578063175c37ef146101b557806323b872dd146101e55780632cfd30051461020157806342842e0e1461021d5780636352211e1461023957610116565b806301ffc9a71461011b57806306fdde031461014b578063081812fc14610169578063095ea7b314610199575b600080fd5b61013560048036038101906101309190611924565b610393565b604051610142919061196c565b60405180910390f35b610153610475565b6040516101609190611a17565b60405180910390f35b610183600480360381019061017e9190611a6f565b610507565b6040516101909190611add565b60405180910390f35b6101b360048036038101906101ae9190611b24565b610523565b005b6101cf60048036038101906101ca9190611b9a565b610539565b6040516101dc9190611add565b60405180910390f35b6101ff60048036038101906101fa9190611bc7565b610553565b005b61021b60048036038101906102169190611c1a565b610655565b005b61023760048036038101906102329190611bc7565b610674565b005b610253600480360381019061024e9190611a6f565b610694565b6040516102609190611add565b60405180910390f35b610283600480360381019061027e9190611c5a565b6106a6565b6040516102909190611c96565b60405180910390f35b6102a1610760565b005b6102ab610774565b6040516102b89190611add565b60405180910390f35b6102c961079e565b6040516102d69190611a17565b60405180910390f35b6102f960048036038101906102f49190611cdd565b610830565b005b61031560048036038101906103109190611e52565b610846565b005b610331600480360381019061032c9190611a6f565b61086b565b60405161033e9190611a17565b60405180910390f35b610361600480360381019061035c9190611ed5565b6108d4565b60405161036e919061196c565b60405180910390f35b610391600480360381019061038c9190611c5a565b610968565b005b60007f80ac58cd000000000000000000000000000000000000000000000000000000007bffffffffffffffffffffffffffffffffffffffffffffffffffffffff1916827bffffffffffffffffffffffffffffffffffffffffffffffffffffffff1916148061045e57507f5b5e139f000000000000000000000000000000000000000000000000000000007bffffffffffffffffffffffffffffffffffffffffffffffffffffffff1916827bffffffffffffffffffffffffffffffffffffffffffffffffffffffff1916145b8061046e575061046d826109ee565b5b9050919050565b60606000805461048490611f44565b80601f01602080910402602001604051908101604052809291908181526020018280546104b090611f44565b80156104fd5780601f106104d2576101008083540402835291602001916104fd565b820191906000526020600020905b8154815290600101906020018083116104e057829003601f168201915b5050505050905090565b600061051282610a58565b5061051c82610ae0565b9050919050565b6105358282610530610b1d565b610b25565b5050565b6000808260001c905061054b81610694565b915050919050565b600073ffffffffffffffffffffffffffffffffffffffff168273ffffffffffffffffffffffffffffffffffffffff16036105c55760006040517f64a0ae920000000000000000000000000000000000000000000000000000000081526004016105bc9190611add565b60405180910390fd5b60006105d983836105d4610b1d565b610b37565b90508373ffffffffffffffffffffffffffffffffffffffff168173ffffffffffffffffffffffffffffffffffffffff161461064f578382826040517f64283d7b00000000000000000000000000000000000000000000000000000000815260040161064693929190611f75565b60405180910390fd5b50505050565b61065d610d51565b60008160001c905061066f8382610dd8565b505050565b61068f83838360405180602001604052806000815250610846565b505050565b600061069f82610a58565b9050919050565b60008073ffffffffffffffffffffffffffffffffffffffff168273ffffffffffffffffffffffffffffffffffffffff16036107195760006040517f89c62b640000000000000000000000000000000000000000000000000000000081526004016107109190611add565b60405180910390fd5b600360008373ffffffffffffffffffffffffffffffffffffffff1673ffffffffffffffffffffffffffffffffffffffff168152602001908152602001600020549050919050565b610768610d51565b6107726000610df6565b565b6000600660009054906101000a900473ffffffffffffffffffffffffffffffffffffffff16905090565b6060600180546107ad90611f44565b80601f01602080910402602001604051908101604052809291908181526020018280546107d990611f44565b80156108265780601f106107fb57610100808354040283529160200191610826565b820191906000526020600020905b81548152906001019060200180831161080957829003601f168201915b5050505050905090565b61084261083b610b1d565b8383610ebc565b5050565b610851848484610553565b61086561085c610b1d565b8585858561102b565b50505050565b606061087682610a58565b5060006108816111dc565b905060008151116108a157604051806020016040528060008152506108cc565b806108ab846111f3565b6040516020016108bc929190611fe8565b6040516020818303038152906040525b915050919050565b6000600560008473ffffffffffffffffffffffffffffffffffffffff1673ffffffffffffffffffffffffffffffffffffffff16815260200190815260200160002060008373ffffffffffffffffffffffffffffffffffffffff1673ffffffffffffffffffffffffffffffffffffffff16815260200190815260200160002060009054906101000a900460ff16905092915050565b610970610d51565b600073ffffffffffffffffffffffffffffffffffffffff168173ffffffffffffffffffffffffffffffffffffffff16036109e25760006040517f1e4fbdf70000000000000000000000000000000000000000000000000000000081526004016109d99190611add565b60405180910390fd5b6109eb81610df6565b50565b60007f01ffc9a7000000000000000000000000000000000000000000000000000000007bffffffffffffffffffffffffffffffffffffffffffffffffffffffff1916827bffffffffffffffffffffffffffffffffffffffffffffffffffffffff1916149050919050565b600080610a64836112c1565b9050600073ffffffffffffffffffffffffffffffffffffffff168173ffffffffffffffffffffffffffffffffffffffff1603610ad757826040517f7e273289000000000000000000000000000000000000000000000000000000008152600401610ace9190611c96565b60405180910390fd5b80915050919050565b60006004600083815260200190815260200160002060009054906101000a900473ffffffffffffffffffffffffffffffffffffffff169050919050565b600033905090565b610b3283838360016112fe565b505050565b600080610b43846112c1565b9050600073ffffffffffffffffffffffffffffffffffffffff168373ffffffffffffffffffffffffffffffffffffffff1614610b8557610b848184866114c3565b5b600073ffffffffffffffffffffffffffffffffffffffff168173ffffffffffffffffffffffffffffffffffffffff1614610c1657610bc76000856000806112fe565b6001600360008373ffffffffffffffffffffffffffffffffffffffff1673ffffffffffffffffffffffffffffffffffffffff168152602001908152602001600020600082825403925050819055505b600073ffffffffffffffffffffffffffffffffffffffff168573ffffffffffffffffffffffffffffffffffffffff1614610c99576001600360008773ffffffffffffffffffffffffffffffffffffffff1673ffffffffffffffffffffffffffffffffffffffff168152602001908152602001600020600082825401925050819055505b846002600086815260200190815260200160002060006101000a81548173ffffffffffffffffffffffffffffffffffffffff021916908373ffffffffffffffffffffffffffffffffffffffff160217905550838573ffffffffffffffffffffffffffffffffffffffff168273ffffffffffffffffffffffffffffffffffffffff167fddf252ad1be2c89b69c2b068fc378daa952ba7f163c4a11628f55a4df523b3ef60405160405180910390a4809150509392505050565b610d59610b1d565b73ffffffffffffffffffffffffffffffffffffffff16610d77610774565b73ffffffffffffffffffffffffffffffffffffffff1614610dd657610d9a610b1d565b6040517f118cdaa7000000000000000000000000000000000000000000000000000000008152600401610dcd9190611add565b60405180910390fd5b565b610df2828260405180602001604052806000815250611587565b5050565b6000600660009054906101000a900473ffffffffffffffffffffffffffffffffffffffff16905081600660006101000a81548173ffffffffffffffffffffffffffffffffffffffff021916908373ffffffffffffffffffffffffffffffffffffffff1602179055508173ffffffffffffffffffffffffffffffffffffffff168173ffffffffffffffffffffffffffffffffffffffff167f8be0079c531659141344cd1fd0a4f28419497f9722a3daafe3b4186f6b6457e060405160405180910390a35050565b600073ffffffffffffffffffffffffffffffffffffffff168273ffffffffffffffffffffffffffffffffffffffff1603610f2d57816040517f5b08ba18000000000000000000000000000000000000000000000000000000008152600401610f249190611add565b60405180910390fd5b80600560008573ffffffffffffffffffffffffffffffffffffffff1673ffffffffffffffffffffffffffffffffffffffff16815260200190815260200160002060008473ffffffffffffffffffffffffffffffffffffffff1673ffffffffffffffffffffffffffffffffffffffff16815260200190815260200160002060006101000a81548160ff0219169083151502179055508173ffffffffffffffffffffffffffffffffffffffff168373ffffffffffffffffffffffffffffffffffffffff167f17307eab39ab6107e8899845ad3d59bd9653f200f220920489ca2b5937696c318360405161101e919061196c565b60405180910390a3505050565b60008373ffffffffffffffffffffffffffffffffffffffff163b11156111d5578273ffffffffffffffffffffffffffffffffffffffff1663150b7a02868685856040518563ffffffff1660e01b815260040161108a9493929190612061565b6020604051808303816000875af19250505080156110c657506040513d601f19601f820116820180604052508101906110c391906120c2565b60015b61114a573d80600081146110f6576040519150601f19603f3d011682016040523d82523d6000602084013e6110fb565b606091505b50600081510361114257836040517f64a0ae920000000000000000000000000000000000000000000000000000000081526004016111399190611add565b60405180910390fd5b805181602001fd5b63150b7a0260e01b7bffffffffffffffffffffffffffffffffffffffffffffffffffffffff1916817bffffffffffffffffffffffffffffffffffffffffffffffffffffffff1916146111d357836040517f64a0ae920000000000000000000000000000000000000000000000000000000081526004016111ca9190611add565b60405180910390fd5b505b5050505050565b606060405180602001604052806000815250905090565b606060006001611202846115ab565b01905060008167ffffffffffffffff81111561122157611220611d27565b5b6040519080825280601f01601f1916602001820160405280156112535781602001600182028036833780820191505090505b509050600082602001820190505b6001156112b6578080600190039150507f3031323334353637383961626364656600000000000000000000000000000000600a86061a8153600a85816112aa576112a96120ef565b5b04945060008503611261575b819350505050919050565b60006002600083815260200190815260200160002060009054906101000a900473ffffffffffffffffffffffffffffffffffffffff169050919050565b80806113375750600073ffffffffffffffffffffffffffffffffffffffff168273ffffffffffffffffffffffffffffffffffffffff1614155b1561146b57600061134784610a58565b9050600073ffffffffffffffffffffffffffffffffffffffff168373ffffffffffffffffffffffffffffffffffffffff16141580156113b257508273ffffffffffffffffffffffffffffffffffffffff168173ffffffffffffffffffffffffffffffffffffffff1614155b80156113c557506113c381846108d4565b155b1561140757826040517fa9fbf51f0000000000000000000000000000000000000000000000000000000081526004016113fe9190611add565b60405180910390fd5b811561146957838573ffffffffffffffffffffffffffffffffffffffff168273ffffffffffffffffffffffffffffffffffffffff167f8c5be1e5ebec7d5bd14f71427d1e84f3dd0314c0f7b2291e5b200ac8c7c3b92560405160405180910390a45b505b836004600085815260200190815260200160002060006101000a81548173ffffffffffffffffffffffffffffffffffffffff021916908373ffffffffffffffffffffffffffffffffffffffff16021790555050505050565b6114ce8383836116fe565b61158257600073ffffffffffffffffffffffffffffffffffffffff168373ffffffffffffffffffffffffffffffffffffffff160361154357806040517f7e27328900000000000000000000000000000000000000000000000000000000815260040161153a9190611c96565b60405180910390fd5b81816040517f177e802f00000000000000000000000000000000000000000000000000000000815260040161157992919061211e565b60405180910390fd5b505050565b61159183836117bf565b6115a661159c610b1d565b600085858561102b565b505050565b600080600090507a184f03e93ff9f4daa797ed6e38ed64bf6a1f0100000000000000008310611609577a184f03e93ff9f4daa797ed6e38ed64bf6a1f01000000000000000083816115ff576115fe6120ef565b5b0492506040810190505b6d04ee2d6d415b85acef81000000008310611646576d04ee2d6d415b85acef8100000000838161163c5761163b6120ef565b5b0492506020810190505b662386f26fc10000831061167557662386f26fc10000838161166b5761166a6120ef565b5b0492506010810190505b6305f5e100831061169e576305f5e1008381611694576116936120ef565b5b0492506008810190505b61271083106116c35761271083816116b9576116b86120ef565b5b0492506004810190505b606483106116e657606483816116dc576116db6120ef565b5b0492506002810190505b600a83106116f5576001810190505b80915050919050565b60008073ffffffffffffffffffffffffffffffffffffffff168373ffffffffffffffffffffffffffffffffffffffff16141580156117b657508273ffffffffffffffffffffffffffffffffffffffff168473ffffffffffffffffffffffffffffffffffffffff161480611777575061177684846108d4565b5b806117b557508273ffffffffffffffffffffffffffffffffffffffff1661179d83610ae0565b73ffffffffffffffffffffffffffffffffffffffff16145b5b90509392505050565b600073ffffffffffffffffffffffffffffffffffffffff168273ffffffffffffffffffffffffffffffffffffffff16036118315760006040517f64a0ae920000000000000000000000000000000000000000000000000000000081526004016118289190611add565b60405180910390fd5b600061183f83836000610b37565b9050600073ffffffffffffffffffffffffffffffffffffffff168173ffffffffffffffffffffffffffffffffffffffff16146118b35760006040517f73c6ac6e0000000000000000000000000000000000000000000000000000000081526004016118aa9190611add565b60405180910390fd5b505050565b6000604051905090565b600080fd5b600080fd5b60007fffffffff0000000000000000000000000000000000000000000000000000000082169050919050565b611901816118cc565b811461190c57600080fd5b50565b60008135905061191e816118f8565b92915050565b60006020828403121561193a576119396118c2565b5b60006119488482850161190f565b91505092915050565b60008115159050919050565b61196681611951565b82525050565b6000602082019050611981600083018461195d565b92915050565b600081519050919050565b600082825260208201905092915050565b60005b838110156119c15780820151818401526020810190506119a6565b60008484015250505050565b6000601f19601f8301169050919050565b60006119e982611987565b6119f38185611992565b9350611a038185602086016119a3565b611a0c816119cd565b840191505092915050565b60006020820190508181036000830152611a3181846119de565b905092915050565b6000819050919050565b611a4c81611a39565b8114611a5757600080fd5b50565b600081359050611a6981611a43565b92915050565b600060208284031215611a8557611a846118c2565b5b6000611a9384828501611a5a565b91505092915050565b600073ffffffffffffffffffffffffffffffffffffffff82169050919050565b6000611ac782611a9c565b9050919050565b611ad781611abc565b82525050565b6000602082019050611af26000830184611ace565b92915050565b611b0181611abc565b8114611b0c57600080fd5b50565b600081359050611b1e81611af8565b92915050565b60008060408385031215611b3b57611b3a6118c2565b5b6000611b4985828601611b0f565b9250506020611b5a85828601611a5a565b9150509250929050565b6000819050919050565b611b7781611b64565b8114611b8257600080fd5b50565b600081359050611b9481611b6e565b92915050565b600060208284031215611bb057611baf6118c2565b5b6000611bbe84828501611b85565b91505092915050565b600080600060608486031215611be057611bdf6118c2565b5b6000611bee86828701611b0f565b9350506020611bff86828701611b0f565b9250506040611c1086828701611a5a565b9150509250925092565b60008060408385031215611c3157611c306118c2565b5b6000611c3f85828601611b0f565b9250506020611c5085828601611b85565b9150509250929050565b600060208284031215611c7057611c6f6118c2565b5b6000611c7e84828501611b0f565b91505092915050565b611c9081611a39565b82525050565b6000602082019050611cab6000830184611c87565b92915050565b611cba81611951565b8114611cc557600080fd5b50565b600081359050611cd781611cb1565b92915050565b60008060408385031215611cf457611cf36118c2565b5b6000611d0285828601611b0f565b9250506020611d1385828601611cc8565b9150509250929050565b600080fd5b600080fd5b7f4e487b7100000000000000000000000000000000000000000000000000000000600052604160045260246000fd5b611d5f826119cd565b810181811067ffffffffffffffff82111715611d7e57611d7d611d27565b5b80604052505050565b6000611d916118b8565b9050611d9d8282611d56565b919050565b600067ffffffffffffffff821115611dbd57611dbc611d27565b5b611dc6826119cd565b9050602081019050919050565b82818337600083830152505050565b6000611df5611df084611da2565b611d87565b905082815260208101848484011115611e1157611e10611d22565b5b611e1c848285611dd3565b509392505050565b600082601f830112611e3957611e38611d1d565b5b8135611e49848260208601611de2565b91505092915050565b60008060008060808587031215611e6c57611e6b6118c2565b5b6000611e7a87828801611b0f565b9450506020611e8b87828801611b0f565b9350506040611e9c87828801611a5a565b925050606085013567ffffffffffffffff811115611ebd57611ebc6118c7565b5b611ec987828801611e24565b91505092959194509250565b60008060408385031215611eec57611eeb6118c2565b5b6000611efa85828601611b0f565b9250506020611f0b85828601611b0f565b9150509250929050565b7f4e487b7100000000000000000000000000000000000000000000000000000000600052602260045260246000fd5b60006002820490506001821680611f5c57607f821691505b602082108103611f6f57611f6e611f15565b5b50919050565b6000606082019050611f8a6000830186611ace565b611f976020830185611c87565b611fa46040830184611ace565b949350505050565b600081905092915050565b6000611fc282611987565b611fcc8185611fac565b9350611fdc8185602086016119a3565b80840191505092915050565b6000611ff48285611fb7565b91506120008284611fb7565b91508190509392505050565b600081519050919050565b600082825260208201905092915050565b60006120338261200c565b61203d8185612017565b935061204d8185602086016119a3565b612056816119cd565b840191505092915050565b60006080820190506120766000830187611ace565b6120836020830186611ace565b6120906040830185611c87565b81810360608301526120a28184612028565b905095945050505050565b6000815190506120bc816118f8565b92915050565b6000602082840312156120d8576120d76118c2565b5b60006120e6848285016120ad565b91505092915050565b7f4e487b7100000000000000000000000000000000000000000000000000000000600052601260045260246000fd5b60006040820190506121336000830185611ace565b6121406020830184611c87565b939250505056fea264697066735822122060d33602897f23db2fea6ffbe10e97434ae7df20e3ae4daa48b08eee92104a6764736f6c634300081c0033",
  "linkReferences": {},
  "deployedLinkReferences": {}
}